:02000002D0002C
:1040000000400D00A4520D00000006000C00050148
:084010000401BD0B00000000DB
:0440180060500D00E7
:10401C0009480A49884208B505D0094A824202D0AB
:10402C00121A00F0D5FF0748074A0021121A00F0B7
:10403C00DDFF014808BD00BFCCE5032014520D0084
:10404C0034E6032034E60320F0E7032070B5074E76
:10405C00074C00F0FDFBA41BA4080025A54200D1D1
:10406C0070BD56F8043B98470135F7E7EC510D004D
:10407C0010520D0000F060B808B500F081F8BDE8F2
:10408C00084000F0A7BB00F061BA00F067BA0078F6
:10409C00B0FA80F04009704701230370704710B5E7
:1040AC0000F056FF03685B699847C4B2312C0AD103
:1040BC000121062000F007FF00F0D0FC2146BDE8EE
:1040CC00104000F00CBB302CF6D10021F1E710B5FC
:1040DC000446006808B100F041FA204610BD13B543
:1040EC000446084659B1019100F0ACFF23680199D0
:1040FC00DB680246204602B0BDE81040184702B00B
:10410C0010BD000008B5072000F0F6FE012804D110
:10411C0000F01EFF0649FFF7E2FF072000F0ECFE5F
:10412C0020B900F015FF0349FFF7D9FF08BD00BF08
:10413C0074500D0076500D0008B50121062000F0DA
:10414C00B1FE0021072000F0ADFE00F087FC4FF41B
:10415C00165100F077FC00F0FBFE2A2100F06AFDFE
:10416C0000F0F6FE044900F068FD00F0F1FEBDE839
:10417C000840024900F065BDAB400D0011410D0037
:10418C004FF47A7000F0ECBA10B500210A4C012003
:10419C0000F058F900232360A380A3710320A3F53A
:1041AC008033A36000F03EF92046044A0449BDE880
:1041BC00104000F0F5BE00BF38E6032034E60320C3
:1041CC00DB400D0008B5024B1B689B68019308BDD2
:1041DC006802030008B5024B1B68DB68019308BD3D
:1041EC006802030008B5024B1B689B68019308BD6D
:1041FC002C02030008B5024B1B68DB68019308BD59
:10420C002C02030008B5024B1B681B69019308BD07
:10421C002C02030008B5024B1B685B69019308BDB7
:10422C002C02030008B5024B1B685B68019308BDA8
:10423C001802030008B5024B1B685B69019308BDAB
:10424C001802030008B5024B1B685B6C019308BD98
:10425C004802030008B5024B1B689B6C019308BD18
:10426C004802030008B5024B1B685B69019308BD4B
:10427C006402030008B5024B1B681B68019308BD60
:10428C003C02030008B5024B1B68DB68019308BDB8
:10429C003C02030008B5024B1B681B69019308BD67
:1042AC003C02030008B5024B1B685B69019308BD17
:1042BC003C02030008B5024B1B689B69019308BDC7
:1042CC003C02030008B5024B1B68DB69019308BD77
:1042DC003C02030008B5024B1B681B6A019308BD26
:1042EC003C02030008B5024B1B689B6A019308BD96
:1042FC003C02030008B5024B1B68DB68019308BD48
:10430C002802030008B5024B1B681B6A019308BD09
:10431C002802030008B5024B1B685B6A019308BDB9
:10432C002802030008B5024B1B689B6A019308BD69
:10433C002802030008B5024B1B68DB6A019308BD19
:10434C002802030008B5024B1B681B6B019308BDC8
:10435C002802030008B5024B1B685B6B019308BD78
:10436C002802030008B5024B1B689B6B019308BD28
:10437C002802030008B5024B1B68DB6B019308BDD8
:10438C002802030008B5024B1B681B6C019308BD87
:10439C002802030008B5024B1B68DB69019308BDBA
:1043AC003002030008B5024B1B681B6A019308BD61
:1043BC003002030008B5024B1B681B68019308BD53
:1043CC004C02030008B5024B1B685B68019308BDE7
:1043DC004C02030008B5024B1B681B69019308BD16
:1043EC004C02030008B5024B1B685B69019308BDC6
:1043FC004C02030008B5024B1B689B69019308BD76
:10440C004C02030008B5024B1B68DB69019308BD25
:10441C004C02030008B5024B1B681B6A019308BDD4
:10442C004C02030008B5024B1B685B68019308BD86
:10443C002002030008B5024B1B685B69019308BDA1
:10444C002002030008B5024B1B68DB6A019308BD10
:10445C002002030008B5034B1B68D3F88830019386
:10446C0008BD00002002030008B5034B1B68D3F8FD
:10447C009430019308BD00002002030008B5024BE4
:10448C001B685B68019308BD4002030008B5024B32
:10449C001B689B68019308BD4002030008B5024BE2
:1044AC001B68DB68019308BD4002030008B5024B92
:1044BC001B681B69019308BD4002030008B5024B41
:1044CC001B685B69019308BD4002030008B5024BF1
:1044DC001B689B69019308BD4002030008B5024BA1
:1044EC001B68DB69019308BD4002030008B5024B51
:1044FC001B681B6A019308BD4002030008B5024B00
:10450C001B681B6B019308BD4002030008B5024BEE
:10451C001B685B6B019308BD4002030008B5024B9E
:10452C001B681B6C019308BD4002030008B5024BCD
:10453C001B685B6C019308BD4002030008B5024B7D
:10454C001B68DB6B019308BD4402030008B5024BEA
:10455C001B681B68019308BD1C02030008B5024BC5
:10456C001B685B68019308BD1C02030008B5024B75
:10457C001B685B6C019308BD1C02030000224068A1
:10458C001146FFF7B3BF002240681146FFF7BEBFCC
:10459C0040680022FFF7B2BF4068002281F00101A1
:1045AC00FFF79CBF002340681A461946FFF78EBFE1
:1045BC00002340681A461946FFF780BF0022406866
:1045CC001146FFF773BF002240681146FFF75EBF2C
:1045DC00406800220221FFF761BF002340681A46A1
:1045EC00FFF74CBF024B03225A60024A1A60704715
:1045FC0044E6032080500D0010B504460846217097
:10460C00FFF7C8FE00236360204610BD10B5094BB0
:10461C00094C022200201A60084B2060A080A07177
:10462C00A360FFF7FFFE2046054A0649BDE810408F
:10463C0000F0B6BC58E603204CE603200000FFFF58
:10464C0034E60320DB400D0010B50446006808B1C9
:10465C00FFF700FE204610BD10B58368044613B169
:10466C00032201469847204610BD000010B5064CA9
:10467C00002320462360FFF7E5FD2046034A04494A
:10468C00BDE8104000F08CBC5CE6032034E603204F
:10469C0055460D00F8B506460D468F180024BD4250
:1046AC000CD0336815F8011B9B6830469847031EE5
:1046BC0001DB1C44F3E7002C08BF1C462046F8BD68
:1046CC0003689B68184738B50D210546FFF7F8FFBE
:1046DC000A2104462846FFF7F3FF204438BD38B5BD
:1046EC000546FFF7EDFF04462846FFF7ECFF204494
:1046FC0038BD30B58BB000238DF82430012A98BF1B
:10470C000A2209AC0D46B1FBF2F101FB125303F086
:10471C00FF03092B94BF30333733DBB2AA4204F8C2
:10472C00013DEFD92146FFF7DAFC0BB030BD002379
:10473C0040681A461946FFF7C1BE0000014B024AF9
:10474C001A60704760E60320B4500D00024B1A68E3
:10475C00024B1A60704700BFCCE5032064E60320CF
:10476C000021FFF767BE10B50446FFF775FF204622
:10477C0010BD00000348044A04490023836000F084
:10478C000FBC00BF68E6032034E6032073470D001E
:10479C00014B1860704700BFD0E5032008B50B4BE8
:1047AC0043B100F05BF903681B699847002801DDF1
:1047BC00AFF30080064B43B100F0CEF903681B69E0
:1047CC009847002801DDAFF3008008BD0000000011
:1047DC000000000008B5FFF7E1FFFFF72BFD014BD0
:1047EC00186008BDD4E703200248034A0349121A93
:1047FC0000F0EEBB00F4032004F4032010520D0073
:10480C0007B5002300931A466FF07701FFF72CFED3
:10481C0003B05DF804FB000007B543880A2B08D0F1
:10482C00502B0BD1094B1B684BB103B05DF804EB5B
:10483C001847FFF7E5FF03B05DF804FB0023009376
:10484C001A466FF07701FFF70FFEF4E77CE60320C2
:10485C0038B5124C1248134D0021FFF787FE236820
:10486C00AB42114B0CBF012200221A7002D0FFF791
:10487C00BBFF2560FFF7D6FC044600F0BFFB0B4BDB
:10488C0013B12046AFF3008000210848FFF756FE15
:10489C00BDE8384006480021FFF7DCBD00F40320DA
:1048AC009D470D001E1C279A78E60320000000008F
:1048BC0025480D00704710B51821044600F075FB13
:1048CC00204610BDF0B5037D062B8DB00E4600F1D1
:1048DC0004074FF0000412D000F1080515F8011D73
:1048EC000A223046FFF705FFAF42044419D0002CD2
:1048FC00F4D02E213046FFF7E3FE0444EEE72F23DD
:10490C006A4639460A208DF80040FFF7ABFC684632
:10491C0000F098FB33680246DB68694630469847DE
:10492C00044620460DB0F0BD10B5054B04461122CF
:10493C0040F8043B002100F059FB204610BD00BF9D
:10494C00DC500D000346074A10B543F8042B01F167
:10495C00100251F8044B43F8044B9142F9D10A78F8
:10496C001A7010BDDC500D0010B59DF8084044EADB
:10497C00032343EA024242EA0161042341600375C6
:10498C0010BD000013B5054B0360CB7800938B78FA
:10499C004A780978FFF7E8FF02B010BDDC500D0033
:1049AC0041747047704708B50021007CFFF722FD69
:1049BC0040EAE07008BD08B50121007CFFF71AFD44
:1049CC0040EAE07008BD08B5007CFFF70BFD20EA5B
:1049DC00E07008BD08B5007CFFF7FCFC20EAE07035
:1049EC0008BD13B50446007C0191FFF7FBFC0028C1
:1049FC00019901DC607C20B1207CFFF703FD20EAEB
:104A0C00E07002B010BD007CFFF704BD10B514219E
:104A1C00044600F0CAFA204610BD000010B54FF451
:104A2C007A73044608460021C4E90113044B236041
:104A3C000123207463741146FFF7BCFC204610BDA3
:104A4C00F0500D00007C0022FFF7BCBC10B5142206
:104A5C000446002100F0CAFA204610BD10B5104CD7
:104A6C0088B003A8FFF7F2FF2178BFF35B8F11F03A
:104A7C00010111D120460191FFF709FB019958B1B1
:104A8C0003AA0848FFF7CAFF2046FFF705FB064AB2
:104A9C000649044800F084FA024808B010BD00BF73
:104AAC0080E6032084E6032034E60320B1490D00A0
:104ABC0070474174704708B5007CFFF713FC20EA7F
:104ACC00E07008BD08B5007CFFF7E4FB20EAE0705D
:104ADC0008BD08B5007CFFF7EDFB40EAE07008BDAF
:104AEC0008B5007CFFF7DEFB40EAE07008BD007CF7
:104AFC00FFF7E8BB37B5457C04462DB1207C03B0ED
:104B0C00BDE83040FFF7BEBB007C0191FFF7EAFB2C
:104B1C0000280199F2DC284603B030BD10B51421F1
:104B2C00044600F042FA204610BD000010B54FF0CC
:104B3C00000C0446084611464FF47A72C4E901C2CF
:104B4C00044A22600122207462741A46FFF792FB19
:104B5C00204610BD20510D0013B50E4C2178BFF32B
:104B6C005B8F11F0010112D120460191FFF78FFAF2
:104B7C00019960B1084A094B0948FFF7D7FF204655
:104B8C00FFF78AFA074A0849054800F009FA044871
:104B9C0002B010BD98E603209CE6032020E703201A
:104BAC00A4E7032034E60320BD4A0D007047F8B596
:104BBC00064615460C468F18BC4206D0336814F8CE
:104BCC00011B9B6830469847F6E72846F8BD007CE9
:104BDC000022FFF797BB007C0021FFF79BBB007CFA
:104BEC000021FFF79FBB007C0021FFF7A3BB007CDB
:104BFC000021FFF7A7BB10B51421044600F0D5F92E
:104C0C00204610BD10B54FF47A73044608460021B7
:104C1C00C4E90113034B236020741146FFF7B2FB68
:104C2C00204610BD50510D000A46007C0023012186
:104C3C00FFF760BBC9B2FFF7F7BF007C0022FFF79C
:104C4C0091BB007C0022FFF795BB00224068114607
:104C5C00FFF72CBC002240681146FFF747BC00222E
:104C6C0040681146FFF752BC40680022FFF746BC73
:104C7C004068002281F00101FFF730BC002340683E
:104C8C001A461946FFF722BC002240681146FFF76E
:104C9C00FDBB406800220221FFF700BC00234068E6
:104CAC001A46FFF7EBBB0000024B04225A60024A83
:104CBC001A607047B8E7032078510D000023406854
:104CCC001A46FFF7DBBB406800220221FFF7E6BB68
:104CDC00002240681146FFF7D9BB002240681146FC
:104CEC00FFF7E4BB002340681A461946FFF7E6BB02
:104CFC00002340681A461946FFF7E8BB40680021BC
:104D0C00FFF70CBC40680021FFF710BC4068002284
:104D1C0081F00101FFF7E2BB40680022FFF7EEBB18
:104D2C00002240681146FFF7F1BB00224068114693
:104D3C00FFF7DCBB2DE9F043002495B016460D4679
:104D4C000746FFF7F1FD214618220EA8009400F04B
:104D5C004DF94023CDE90C3421466B460CAA304664
:104D6C00FFF738FA044600284CD102460121686846
:104D7C00FFF79CFB0221804622466868FFF796FBF2
:104D8C00009E81462146002E3CD000293AD1736802
:104D9C00022B03D00A2B11D0F669F4E7B8F1000FFF
:104DAC000AD0716906A8043107ADFFF7EBFD0FCDF2
:104DBC003C1D0FC42B6823704146EDE7B9F1000F81
:104DCC0001D14946E8E77469102201A800F00EF9F8
:104DDC0006238DF8143001AD04F10803183418685B
:104DEC0059682A4603C20833A3421546F7D101A9D4
:104DFC0006A807ADFFF7A6FD0FCD3C1D0FC42B6811
:104E0C002370DEE70098FFF7DDF9384615B0BDE8F2
:104E1C00F0830000024B034A1A6000225A6070476C
:104E2C00C0E70320B4510D00232813B502D900208C
:104E3C0002B010BDA0F10B03022B1AD8174C21782D
:104E4C00BFF35B8F11F001010BD120460191FFF7ED
:104E5C001EF9019928B11248FFF7CEFB2046FFF747
:104E6C001BF90F4B1878FFF79DFA0028DFD10120B2
:104E7C00DEE7012809D800F06BF80021007CFFF771
:104E8C0069FA80F00100C0B2D2E709380128EED8E7
:104E9C00FFF762FE007CFFF71DFAF2E7C8E703207C
:104EAC00CCE70320232838B504460D460AD8FF2941
:104EBC0008D0FFF7B9FF28B129462046BDE8384095
:104ECC00FFF790B938BD38B504460D46FFF792F997
:104EDC00FF2810D0062804D84D2323FA00F0C3076E
:104EEC0009D42046FFF7A0FF28B129462046BDE88B
:104EFC003840FFF787B938BD10B50446FFF77AF98B
:104F0C00031FDBB2012B08D92046FFF78DFF20B120
:104F1C002046BDE81040FFF77DB9002010BD000011
:104F2C0038B5002320254380142304460380856074
:104F3C0005610649284600F03AF8044960602846A5
:104F4C0000F035F8E060204638BD00BFE8510D0098
:104F5C0030B50F4D2978BFF35B8F11F0010487B08A
:104F6C0013D12846FFF793F878B101A8FFF7D8FFC3
:104F7C0001AA21460748FFF745FE2846FFF78CF8A3
:104F8C00054A0649034800F00BF8024807B030BD4B
:104F9C00D8E70320DCE7032034E60320B94B0D00EF
:104FAC000B460146184600F005B8FFF76EB8FFF740
:104FBC006AB8000010B5054C13462CB10A460146E0
:104FCC000220AFF3008010BD2046FCE7000000007B
:104FDC000A44914200F1FF3300D1704710B511F82B
:104FEC00014B03F8014F9142F9D110BD0244034625
:104FFC00934200D1704703F8011BF9E738B50D4B0C
:10500C001D68AB6B04467BB91820FFF79FFA0A4A60
:10501C000A4BA863C0E90023094B83600B238381EF
:10502C0001220023C0E90423AB6B00221C615A61EE
:10503C0038BD00BFD0E503200E33CDAB34126DE686
:10504C00ECDE0500034613F8012B002AFBD1181ADD
:10505C00013870471D400D0059400D0081400D0076
:10506C0085400D0000000000310030000000000001
:10507C0000000000E7450D00DD450D00D3450D0097
:10508C00C9450D00BD450D00B1450D00094D0D0084
:10509C00114D0D00A5450D009D450D0093450D00CE
:1050AC0089450D00414D0D006170700025592D256D
:1050BC006D2D25645425483A254D3A2553257A0003
:1050CC0061736374696D65000000000000000000EE
:1050DC00D1480D00C1480D00C3480D000000000070
:1050EC0000000000B1490D00194A0D00EF490D00F8
:1050FC00A1460D00E1490D00B3490D00C3490D0057
:10510C00134A0D00D3490D00AD490D0000000000FD
:10511C0000000000BD4A0D00294B0D00014B0D0095
:10512C00A1460D00D14A0D00ED4A0D00DF4A0D00DD
:10513C00FB4A0D00BF4A0D00C34A0D0000000000E1
:10514C0000000000B94B0D00034C0D00DB4B0D00B3
:10515C00BB4B0D00E34B0D00EB4B0D00F34B0D0067
:10516C00FB4B0D000000000000000000A94C0D00DE
:10517C009F4C0D00954C0D00574C0D003B470D00FE
:10518C00894C0D00094D0D00114D0D007D4C0D008D
:10519C00754C0D006B4C0D00614C0D00414D0D001C
:1051AC000000000000000000C94C0D00D34C0D00A5
:1051BC00DD4C0D00E74C0D00F14C0D00FD4C0D00CD
:1051CC00094D0D00114D0D00194D0D00254D0D0013
:1051DC002D4D0D00374D0D00414D0D000000000010
:1051EC0095410D00F1450D0019460D0079460D0055
:1051FC0049470D0059470D0081470D00B54C0D0076
:04520C00214E0D0022
:04521000000000009A
:10521400CC500D00D4E50320000000000000000085
:10522400000000000000000000000000000000007A
:10523400000000000000000000000000000000006A
:10524400000000000000000000000000000000005A
:10525400000000000000000000000000000000004A
:10526400000000000000000000000000000000003A
:08527400000000000000000032
:10527C00FFFFFFFF00000102030405060708090AEF
:10528C000B0C0D0E0F101112131415161718191AEA
:08529C001B1C1D1E1F20280031
:0452A40078563412F2
:04000003D000401CCD
:00000001FF
